{
  "_format": "hh-sol-artifact-1",
  "contractName": "OrderbookFactory",
  "sourceName": "contracts/OrderBookFactory.sol",
  "abi": [
    {
      "inputs": [],
      "stateMutability": "nonpayable",
      "type": "constructor"
    },
    {
      "inputs": [
        {
          "internalType": "address",
          "name": "owner",
          "type": "address"
        }
      ],
      "name": "OwnableInvalidOwner",
      "type": "error"
    },
    {
      "inputs": [
        {
          "internalType": "address",
          "name": "account",
          "type": "address"
        }
      ],
      "name": "OwnableUnauthorizedAccount",
      "type": "error"
    },
    {
      "anonymous": false,
      "inputs": [
        {
          "indexed": true,
          "internalType": "address",
          "name": "token1",
          "type": "address"
        },
        {
          "indexed": true,
          "internalType": "address",
          "name": "token2",
          "type": "address"
        },
        {
          "indexed": false,
          "internalType": "address",
          "name": "orderbook",
          "type": "address"
        }
      ],
      "name": "NewPair",
      "type": "event"
    },
    {
      "anonymous": false,
      "inputs": [
        {
          "indexed": true,
          "internalType": "address",
          "name": "previousOwner",
          "type": "address"
        },
        {
          "indexed": true,
          "internalType": "address",
          "name": "newOwner",
          "type": "address"
        }
      ],
      "name": "OwnershipTransferred",
      "type": "event"
    },
    {
      "inputs": [
        {
          "internalType": "address",
          "name": "_token1",
          "type": "address"
        },
        {
          "internalType": "address",
          "name": "_token2",
          "type": "address"
        }
      ],
      "name": "addPair",
      "outputs": [],
      "stateMutability": "nonpayable",
      "type": "function"
    },
    {
      "inputs": [
        {
          "internalType": "bytes32",
          "name": "",
          "type": "bytes32"
        }
      ],
      "name": "orderbooks",
      "outputs": [
        {
          "internalType": "address",
          "name": "",
          "type": "address"
        }
      ],
      "stateMutability": "view",
      "type": "function"
    },
    {
      "inputs": [],
      "name": "owner",
      "outputs": [
        {
          "internalType": "address",
          "name": "",
          "type": "address"
        }
      ],
      "stateMutability": "view",
      "type": "function"
    },
    {
      "inputs": [],
      "name": "pairsSupported",
      "outputs": [
        {
          "internalType": "uint256",
          "name": "",
          "type": "uint256"
        }
      ],
      "stateMutability": "view",
      "type": "function"
    },
    {
      "inputs": [],
      "name": "renounceOwnership",
      "outputs": [],
      "stateMutability": "nonpayable",
      "type": "function"
    },
    {
      "inputs": [
        {
          "internalType": "address",
          "name": "newOwner",
          "type": "address"
        }
      ],
      "name": "transferOwnership",
      "outputs": [],
      "stateMutability": "nonpayable",
      "type": "function"
    }
  ],
  "bytecode": "0x608060405234801561001057600080fd5b5033600073ffffffffffffffffffffffffffffffffffffffff168173ffffffffffffffffffffffffffffffffffffffff16036100845760006040517f1e4fbdf700000000000000000000000000000000000000000000000000000000815260040161007b919061019e565b60405180910390fd5b6100938161009960201b60201c565b506101b9565b60008060009054906101000a900473ffffffffffffffffffffffffffffffffffffffff169050816000806101000a81548173ffffffffffffffffffffffffffffffffffffffff021916908373ffffffffffffffffffffffffffffffffffffffff1602179055508173ffffffffffffffffffffffffffffffffffffffff168173ffffffffffffffffffffffffffffffffffffffff167f8be0079c531659141344cd1fd0a4f28419497f9722a3daafe3b4186f6b6457e060405160405180910390a35050565b600073ffffffffffffffffffffffffffffffffffffffff82169050919050565b60006101888261015d565b9050919050565b6101988161017d565b82525050565b60006020820190506101b3600083018461018f565b92915050565b6133a9806101c86000396000f3fe60806040523480156200001157600080fd5b50600436106200006a5760003560e01c806370f402f6146200006f578063715018a614620000915780638da5cb5b146200009d578063ac57231514620000bf578063b6f3e08714620000f5578063f2fde38b1462000115575b600080fd5b6200007962000135565b60405162000088919062000675565b60405180910390f35b6200009b6200013b565b005b620000a762000153565b604051620000b69190620006d7565b60405180910390f35b620000dd6004803603810190620000d7919062000734565b6200017c565b604051620000ec9190620006d7565b60405180910390f35b6200011360048036038101906200010d919062000797565b620001af565b005b6200013360048036038101906200012d9190620007de565b62000463565b005b60015481565b62000145620004f0565b62000151600062000580565b565b60008060009054906101000a900473ffffffffffffffffffffffffffffffffffffffff16905090565b60026020528060005260406000206000915054906101000a900473ffffffffffffffffffffffffffffffffffffffff1681565b620001b9620004f0565b8073ffffffffffffffffffffffffffffffffffffffff168273ffffffffffffffffffffffffffffffffffffffff16036200022a576040517f08c379a0000000000000000000000000000000000000000000000000000000008152600401620002219062000871565b60405180910390fd5b6000808273ffffffffffffffffffffffffffffffffffffffff168473ffffffffffffffffffffffffffffffffffffffff1610156200026e5783915082905062000275565b8291508390505b600082826040516020016200028c929190620008e3565b604051602081830303815290604052805190602001209050600073ffffffffffffffffffffffffffffffffffffffff166002600083815260200190815260200160002060009054906101000a900473ffffffffffffffffffffffffffffffffffffffff1673ffffffffffffffffffffffffffffffffffffffff161462000349576040517f08c379a0000000000000000000000000000000000000000000000000000000008152600401620003409062000963565b60405180910390fd5b600083836040516200035b906200064c565b6200036892919062000985565b604051809103906000f08015801562000385573d6000803e3d6000fd5b509050806002600084815260200190815260200160002060006101000a81548173ffffffffffffffffffffffffffffffffffffffff021916908373ffffffffffffffffffffffffffffffffffffffff16021790555060016000815480929190620003ef90620009e1565b91905055508273ffffffffffffffffffffffffffffffffffffffff168473ffffffffffffffffffffffffffffffffffffffff167f3196b15aed0d9c4241e2967c90fa78bc7f471f440f7a64d1b4bb4ea89c3341b983604051620004539190620006d7565b60405180910390a3505050505050565b6200046d620004f0565b600073ffffffffffffffffffffffffffffffffffffffff168173ffffffffffffffffffffffffffffffffffffffff1603620004e25760006040517f1e4fbdf7000000000000000000000000000000000000000000000000000000008152600401620004d99190620006d7565b60405180910390fd5b620004ed8162000580565b50565b620004fa62000644565b73ffffffffffffffffffffffffffffffffffffffff166200051a62000153565b73ffffffffffffffffffffffffffffffffffffffff16146200057e576200054062000644565b6040517f118cdaa7000000000000000000000000000000000000000000000000000000008152600401620005759190620006d7565b60405180910390fd5b565b60008060009054906101000a900473ffffffffffffffffffffffffffffffffffffffff169050816000806101000a81548173ffffffffffffffffffffffffffffffffffffffff021916908373ffffffffffffffffffffffffffffffffffffffff1602179055508173ffffffffffffffffffffffffffffffffffffffff168173ffffffffffffffffffffffffffffffffffffffff167f8be0079c531659141344cd1fd0a4f28419497f9722a3daafe3b4186f6b6457e060405160405180910390a35050565b600033905090565b6129458062000a2f83390190565b6000819050919050565b6200066f816200065a565b82525050565b60006020820190506200068c600083018462000664565b92915050565b600073ffffffffffffffffffffffffffffffffffffffff82169050919050565b6000620006bf8262000692565b9050919050565b620006d181620006b2565b82525050565b6000602082019050620006ee6000830184620006c6565b92915050565b600080fd5b6000819050919050565b6200070e81620006f9565b81146200071a57600080fd5b50565b6000813590506200072e8162000703565b92915050565b6000602082840312156200074d576200074c620006f4565b5b60006200075d848285016200071d565b91505092915050565b6200077181620006b2565b81146200077d57600080fd5b50565b600081359050620007918162000766565b92915050565b60008060408385031215620007b157620007b0620006f4565b5b6000620007c18582860162000780565b9250506020620007d48582860162000780565b9150509250929050565b600060208284031215620007f757620007f6620006f4565b5b6000620008078482850162000780565b91505092915050565b600082825260208201905092915050565b7f4c6f7320746f6b656e7320646562656e20736572206469666572656e74657300600082015250565b600062000859601f8362000810565b9150620008668262000821565b602082019050919050565b600060208201905081810360008301526200088c816200084a565b9050919050565b60008160601b9050919050565b6000620008ad8262000893565b9050919050565b6000620008c182620008a0565b9050919050565b620008dd620008d782620006b2565b620008b4565b82525050565b6000620008f18285620008c8565b601482019150620009038284620008c8565b6014820191508190509392505050565b7f456c2070617220646520746f6b656e7320796120657869737465000000000000600082015250565b60006200094b601a8362000810565b9150620009588262000913565b602082019050919050565b600060208201905081810360008301526200097e816200093c565b9050919050565b60006040820190506200099c6000830185620006c6565b620009ab6020830184620006c6565b9392505050565b7f4e487b7100000000000000000000000000000000000000000000000000000000600052601160045260246000fd5b6000620009ee826200065a565b91507fffffffffffffffffffffffffffffffffffffffffffffffffffffffffffffffff820362000a235762000a22620009b2565b5b60018201905091905056fe60806040523480156200001157600080fd5b5060405162002945380380620029458339818101604052810190620000379190620002e0565b6001600081905550600073ffffffffffffffffffffffffffffffffffffffff168273ffffffffffffffffffffffffffffffffffffffff1614158015620000aa5750600073ffffffffffffffffffffffffffffffffffffffff168173ffffffffffffffffffffffffffffffffffffffff1614155b620000ec576040517f08c379a0000000000000000000000000000000000000000000000000000000008152600401620000e39062000388565b60405180910390fd5b81600160006101000a81548173ffffffffffffffffffffffffffffffffffffffff021916908373ffffffffffffffffffffffffffffffffffffffff16021790555080600260006101000a81548173ffffffffffffffffffffffffffffffffffffffff021916908373ffffffffffffffffffffffffffffffffffffffff160217905550600160046000600173ffffffffffffffffffffffffffffffffffffffff1673ffffffffffffffffffffffffffffffffffffffff16815260200190815260200160002060006101000a81548173ffffffffffffffffffffffffffffffffffffffff021916908373ffffffffffffffffffffffffffffffffffffffff160217905550600160076000600173ffffffffffffffffffffffffffffffffffffffff1673ffffffffffffffffffffffffffffffffffffffff16815260200190815260200160002060006101000a81548173ffffffffffffffffffffffffffffffffffffffff021916908373ffffffffffffffffffffffffffffffffffffffff1602179055505050620003aa565b600080fd5b600073ffffffffffffffffffffffffffffffffffffffff82169050919050565b6000620002a8826200027b565b9050919050565b620002ba816200029b565b8114620002c657600080fd5b50565b600081519050620002da81620002af565b92915050565b60008060408385031215620002fa57620002f962000276565b5b60006200030a85828601620002c9565b92505060206200031d85828601620002c9565b9150509250929050565b600082825260208201905092915050565b7f546f6b656e73206e6f2076616c69646f73000000000000000000000000000000600082015250565b60006200037060118362000327565b91506200037d8262000338565b602082019050919050565b60006020820190508181036000830152620003a38162000361565b9050919050565b61258b80620003ba6000396000f3fe608060405234801561001057600080fd5b506004361061007d5760003560e01c80638da357621161005b5780638da35762146100c6578063a9b4be44146100d0578063ca703075146100ec578063fecd817c1461010a5761007d565b80630c6b6737146100825780635d19dcf8146100a05780637f008a0a146100bc575b600080fd5b61008a610114565b6040516100979190611f5e565b60405180910390f35b6100ba60048036038101906100b59190611faa565b61011a565b005b6100c46105d0565b005b6100ce610952565b005b6100ea60048036038101906100e59190611faa565b610c82565b005b6100f4611138565b6040516101019190611f5e565b60405180910390f35b61011261113e565b005b60085481565b6101226114c0565b6000821180156101325750600081115b610171576040517f08c379a00000000000000000000000000000000000000000000000000000000081526004016101689061206d565b60405180910390fd5b6000600360003373ffffffffffffffffffffffffffffffffffffffff1673ffffffffffffffffffffffffffffffffffffffff16815260200190815260200160002060020154146101f6576040517f08c379a00000000000000000000000000000000000000000000000000000000081526004016101ed906120ff565b60405180910390fd5b80600160009054906101000a900473ffffffffffffffffffffffffffffffffffffffff1673ffffffffffffffffffffffffffffffffffffffff166370a08231336040518263ffffffff1660e01b81526004016102529190612160565b602060405180830381865afa15801561026f573d6000803e3d6000fd5b505050506040513d601f19601f820116820180604052508101906102939190612190565b10156102d4576040517f08c379a00000000000000000000000000000000000000000000000000000000081526004016102cb9061222f565b60405180910390fd5b604051806060016040528083815260200182815260200142815250600360003373ffffffffffffffffffffffffffffffffffffffff1673ffffffffffffffffffffffffffffffffffffffff168152602001908152602001600020600082015181600001556020820151816001015560408201518160020155905050600061035a83611506565b9050600460008273ffffffffffffffffffffffffffffffffffffffff1673ffffffffffffffffffffffffffffffffffffffff16815260200190815260200160002060009054906101000a900473ffffffffffffffffffffffffffffffffffffffff16600460003373ffffffffffffffffffffffffffffffffffffffff1673ffffffffffffffffffffffffffffffffffffffff16815260200190815260200160002060006101000a81548173ffffffffffffffffffffffffffffffffffffffff021916908373ffffffffffffffffffffffffffffffffffffffff16021790555033600460008373ffffffffffffffffffffffffffffffffffffffff1673ffffffffffffffffffffffffffffffffffffffff16815260200190815260200160002060006101000a81548173ffffffffffffffffffffffffffffffffffffffff021916908373ffffffffffffffffffffffffffffffffffffffff160217905550600560008154809291906104ca9061227e565b9190505550600160009054906101000a900473ffffffffffffffffffffffffffffffffffffffff1673ffffffffffffffffffffffffffffffffffffffff166323b872dd3330856040518463ffffffff1660e01b815260040161052e939291906122c6565b6020604051808303816000875af115801561054d573d6000803e3d6000fd5b505050506040513d601f19601f820116820180604052508101906105719190612335565b503373ffffffffffffffffffffffffffffffffffffffff16837f99b182dd1025506256caf84d45807c6e8055bbb71be38e3c702fb634d69755c084426040516105bb929190612362565b60405180910390a3506105cc6116bf565b5050565b6105d86114c0565b6000600660003373ffffffffffffffffffffffffffffffffffffffff1673ffffffffffffffffffffffffffffffffffffffff168152602001908152602001600020600201540361065d576040517f08c379a0000000000000000000000000000000000000000000000000000000008152600401610654906123d7565b60405180910390fd5b6000600660003373ffffffffffffffffffffffffffffffffffffffff1673ffffffffffffffffffffffffffffffffffffffff16815260200190815260200160002060010154905060006106af336116c9565b9050600760003373ffffffffffffffffffffffffffffffffffffffff1673ffffffffffffffffffffffffffffffffffffffff16815260200190815260200160002060009054906101000a900473ffffffffffffffffffffffffffffffffffffffff16600760008373ffffffffffffffffffffffffffffffffffffffff1673ffffffffffffffffffffffffffffffffffffffff16815260200190815260200160002060006101000a81548173ffffffffffffffffffffffffffffffffffffffff021916908373ffffffffffffffffffffffffffffffffffffffff160217905550600760003373ffffffffffffffffffffffffffffffffffffffff1673ffffffffffffffffffffffffffffffffffffffff16815260200190815260200160002060006101000a81549073ffffffffffffffffffffffffffffffffffffffff0219169055600660003373ffffffffffffffffffffffffffffffffffffffff1673ffffffffffffffffffffffffffffffffffffffff1681526020019081526020016000206000808201600090556001820160009055600282016000905550506008600081548092919061085d906123f7565b9190505550600260009054906101000a900473ffffffffffffffffffffffffffffffffffffffff1673ffffffffffffffffffffffffffffffffffffffff1663a9059cbb33846040518363ffffffff1660e01b81526004016108bf929190612420565b6020604051808303816000875af11580156108de573d6000803e3d6000fd5b505050506040513d601f19601f820116820180604052508101906109029190612335565b503373ffffffffffffffffffffffffffffffffffffffff167fd72fd04c1f0f3dd2839fa078c4beeaabe5ef0b99fa16e668873e262e2ba475a260405160405180910390a250506109506116bf565b565b61095a6114c0565b600060046000600173ffffffffffffffffffffffffffffffffffffffff1673ffffffffffffffffffffffffffffffffffffffff16815260200190815260200160002060009054906101000a900473ffffffffffffffffffffffffffffffffffffffff169050600060076000600173ffffffffffffffffffffffffffffffffffffffff1673ffffffffffffffffffffffffffffffffffffffff16815260200190815260200160002060009054906101000a900473ffffffffffffffffffffffffffffffffffffffff1690505b600173ffffffffffffffffffffffffffffffffffffffff168273ffffffffffffffffffffffffffffffffffffffff1614158015610a8f5750600173ffffffffffffffffffffffffffffffffffffffff168173ffffffffffffffffffffffffffffffffffffffff1614155b15610c76576000600360008473ffffffffffffffffffffffffffffffffffffffff1673ffffffffffffffffffffffffffffffffffffffff168152602001908152602001600020604051806060016040529081600082015481526020016001820154815260200160028201548152505090506000600660008473ffffffffffffffffffffffffffffffffffffffff1673ffffffffffffffffffffffffffffffffffffffff168152602001908152602001600020604051806060016040529081600082015481526020016001820154815260200160028201548152505090508060000151826000015110610bab5760008160200151836020015110610b96578160200151610b9c565b82602001515b9050610ba9858583611871565b505b600460008573ffffffffffffffffffffffffffffffffffffffff1673ffffffffffffffffffffffffffffffffffffffff16815260200190815260200160002060009054906101000a900473ffffffffffffffffffffffffffffffffffffffff169350600760008473ffffffffffffffffffffffffffffffffffffffff1673ffffffffffffffffffffffffffffffffffffffff16815260200190815260200160002060009054906101000a900473ffffffffffffffffffffffffffffffffffffffff1692505050610a25565b5050610c806116bf565b565b610c8a6114c0565b600082118015610c9a5750600081115b610cd9576040517f08c379a0000000000000000000000000000000000000000000000000000000008152600401610cd09061206d565b60405180910390fd5b6000600660003373ffffffffffffffffffffffffffffffffffffffff1673ffffffffffffffffffffffffffffffffffffffff1681526020019081526020016000206002015414610d5e576040517f08c379a0000000000000000000000000000000000000000000000000000000008152600401610d55906120ff565b60405180910390fd5b80600260009054906101000a900473ffffffffffffffffffffffffffffffffffffffff1673ffffffffffffffffffffffffffffffffffffffff166370a08231336040518263ffffffff1660e01b8152600401610dba9190612160565b602060405180830381865afa158015610dd7573d6000803e3d6000fd5b505050506040513d601f19601f82011682018060405250810190610dfb9190612190565b1015610e3c576040517f08c379a0000000000000000000000000000000000000000000000000000000008152600401610e3390612495565b60405180910390fd5b604051806060016040528083815260200182815260200142815250600660003373ffffffffffffffffffffffffffffffffffffffff1673ffffffffffffffffffffffffffffffffffffffff1681526020019081526020016000206000820151816000015560208201518160010155604082015181600201559050506000610ec283611be4565b9050600760008273ffffffffffffffffffffffffffffffffffffffff1673ffffffffffffffffffffffffffffffffffffffff16815260200190815260200160002060009054906101000a900473ffffffffffffffffffffffffffffffffffffffff16600760003373ffffffffffffffffffffffffffffffffffffffff1673ffffffffffffffffffffffffffffffffffffffff16815260200190815260200160002060006101000a81548173ffffffffffffffffffffffffffffffffffffffff021916908373ffffffffffffffffffffffffffffffffffffffff16021790555033600760008373ffffffffffffffffffffffffffffffffffffffff1673ffffffffffffffffffffffffffffffffffffffff16815260200190815260200160002060006101000a81548173ffffffffffffffffffffffffffffffffffffffff021916908373ffffffffffffffffffffffffffffffffffffffff160217905550600860008154809291906110329061227e565b9190505550600260009054906101000a900473ffffffffffffffffffffffffffffffffffffffff1673ffffffffffffffffffffffffffffffffffffffff166323b872dd3330856040518463ffffffff1660e01b8152600401611096939291906122c6565b6020604051808303816000875af11580156110b5573d6000803e3d6000fd5b505050506040513d601f19601f820116820180604052508101906110d99190612335565b503373ffffffffffffffffffffffffffffffffffffffff16837fab5d04745c0a2a8a3984442acd01a91a7e2e086873ab9f5b19bec3c6729986c18442604051611123929190612362565b60405180910390a3506111346116bf565b5050565b60055481565b6111466114c0565b6000600360003373ffffffffffffffffffffffffffffffffffffffff1673ffffffffffffffffffffffffffffffffffffffff16815260200190815260200160002060020154036111cb576040517f08c379a00000000000000000000000000000000000000000000000000000000081526004016111c290612501565b60405180910390fd5b6000600360003373ffffffffffffffffffffffffffffffffffffffff1673ffffffffffffffffffffffffffffffffffffffff168152602001908152602001600020600101549050600061121d33611d9d565b9050600460003373ffffffffffffffffffffffffffffffffffffffff1673ffffffffffffffffffffffffffffffffffffffff16815260200190815260200160002060009054906101000a900473ffffffffffffffffffffffffffffffffffffffff16600460008373ffffffffffffffffffffffffffffffffffffffff1673ffffffffffffffffffffffffffffffffffffffff16815260200190815260200160002060006101000a81548173ffffffffffffffffffffffffffffffffffffffff021916908373ffffffffffffffffffffffffffffffffffffffff160217905550600460003373ffffffffffffffffffffffffffffffffffffffff1673ffffffffffffffffffffffffffffffffffffffff16815260200190815260200160002060006101000a81549073ffffffffffffffffffffffffffffffffffffffff0219169055600360003373ffffffffffffffffffffffffffffffffffffffff1673ffffffffffffffffffffffffffffffffffffffff168152602001908152602001600020600080820160009055600182016000905560028201600090555050600560008154809291906113cb906123f7565b9190505550600160009054906101000a900473ffffffffffffffffffffffffffffffffffffffff1673ffffffffffffffffffffffffffffffffffffffff1663a9059cbb33846040518363ffffffff1660e01b815260040161142d929190612420565b6020604051808303816000875af115801561144c573d6000803e3d6000fd5b505050506040513d601f19601f820116820180604052508101906114709190612335565b503373ffffffffffffffffffffffffffffffffffffffff167f40a722cc05fdeaf68cfdd1182ed21c908bd55248a30fb25c43d3bca5f9eb66f560405160405180910390a250506114be6116bf565b565b6002600054036114fc576040517f3ee5aeb500000000000000000000000000000000000000000000000000000000815260040160405180910390fd5b6002600081905550565b600080600190505b600173ffffffffffffffffffffffffffffffffffffffff16600460008373ffffffffffffffffffffffffffffffffffffffff1673ffffffffffffffffffffffffffffffffffffffff16815260200190815260200160002060009054906101000a900473ffffffffffffffffffffffffffffffffffffffff1673ffffffffffffffffffffffffffffffffffffffff161415801561164a57508260036000600460008573ffffffffffffffffffffffffffffffffffffffff1673ffffffffffffffffffffffffffffffffffffffff16815260200190815260200160002060009054906101000a900473ffffffffffffffffffffffffffffffffffffffff1673ffffffffffffffffffffffffffffffffffffffff1673ffffffffffffffffffffffffffffffffffffffff16815260200190815260200160002060000154115b156116b657600460008273ffffffffffffffffffffffffffffffffffffffff1673ffffffffffffffffffffffffffffffffffffffff16815260200190815260200160002060009054906101000a900473ffffffffffffffffffffffffffffffffffffffff16905061150e565b80915050919050565b6001600081905550565b600080600190505b600173ffffffffffffffffffffffffffffffffffffffff16600760008373ffffffffffffffffffffffffffffffffffffffff1673ffffffffffffffffffffffffffffffffffffffff16815260200190815260200160002060009054906101000a900473ffffffffffffffffffffffffffffffffffffffff1673ffffffffffffffffffffffffffffffffffffffff1614611866578273ffffffffffffffffffffffffffffffffffffffff16600760008373ffffffffffffffffffffffffffffffffffffffff1673ffffffffffffffffffffffffffffffffffffffff16815260200190815260200160002060009054906101000a900473ffffffffffffffffffffffffffffffffffffffff1673ffffffffffffffffffffffffffffffffffffffff16036117ff578091505061186c565b600760008273ffffffffffffffffffffffffffffffffffffffff1673ffffffffffffffffffffffffffffffffffffffff16815260200190815260200160002060009054906101000a900473ffffffffffffffffffffffffffffffffffffffff1690506116d1565b60009150505b919050565b80600360008573ffffffffffffffffffffffffffffffffffffffff1673ffffffffffffffffffffffffffffffffffffffff16815260200190815260200160002060010160008282546118c39190612521565b9250508190555080600660008473ffffffffffffffffffffffffffffffffffffffff1673ffffffffffffffffffffffffffffffffffffffff168152602001908152602001600020600101600082825461191c9190612521565b92505081905550600160009054906101000a900473ffffffffffffffffffffffffffffffffffffffff1673ffffffffffffffffffffffffffffffffffffffff1663a9059cbb83836040518363ffffffff1660e01b8152600401611980929190612420565b6020604051808303816000875af115801561199f573d6000803e3d6000fd5b505050506040513d601f19601f820116820180604052508101906119c39190612335565b50600260009054906101000a900473ffffffffffffffffffffffffffffffffffffffff1673ffffffffffffffffffffffffffffffffffffffff1663a9059cbb84836040518363ffffffff1660e01b8152600401611a21929190612420565b6020604051808303816000875af1158015611a40573d6000803e3d6000fd5b505050506040513d601f19601f82011682018060405250810190611a649190612335565b506000600360008573ffffffffffffffffffffffffffffffffffffffff1673ffffffffffffffffffffffffffffffffffffffff1681526020019081526020016000206001015403611b2257600360008473ffffffffffffffffffffffffffffffffffffffff1673ffffffffffffffffffffffffffffffffffffffff16815260200190815260200160002060008082016000905560018201600090556002820160009055505060056000815480929190611b1c906123f7565b91905055505b6000600660008473ffffffffffffffffffffffffffffffffffffffff1673ffffffffffffffffffffffffffffffffffffffff1681526020019081526020016000206001015403611bdf57600660008373ffffffffffffffffffffffffffffffffffffffff1673ffffffffffffffffffffffffffffffffffffffff16815260200190815260200160002060008082016000905560018201600090556002820160009055505060086000815480929190611bd9906123f7565b91905055505b505050565b600080600190505b600173ffffffffffffffffffffffffffffffffffffffff16600760008373ffffffffffffffffffffffffffffffffffffffff1673ffffffffffffffffffffffffffffffffffffffff16815260200190815260200160002060009054906101000a900473ffffffffffffffffffffffffffffffffffffffff1673ffffffffffffffffffffffffffffffffffffffff1614158015611d2857508260066000600760008573ffffffffffffffffffffffffffffffffffffffff1673ffffffffffffffffffffffffffffffffffffffff16815260200190815260200160002060009054906101000a900473ffffffffffffffffffffffffffffffffffffffff1673ffffffffffffffffffffffffffffffffffffffff1673ffffffffffffffffffffffffffffffffffffffff16815260200190815260200160002060000154105b15611d9457600760008273ffffffffffffffffffffffffffffffffffffffff1673ffffffffffffffffffffffffffffffffffffffff16815260200190815260200160002060009054906101000a900473ffffffffffffffffffffffffffffffffffffffff169050611bec565b80915050919050565b600080600190505b600173ffffffffffffffffffffffffffffffffffffffff16600460008373ffffffffffffffffffffffffffffffffffffffff1673ffffffffffffffffffffffffffffffffffffffff16815260200190815260200160002060009054906101000a900473ffffffffffffffffffffffffffffffffffffffff1673ffffffffffffffffffffffffffffffffffffffff1614611f3a578273ffffffffffffffffffffffffffffffffffffffff16600460008373ffffffffffffffffffffffffffffffffffffffff1673ffffffffffffffffffffffffffffffffffffffff16815260200190815260200160002060009054906101000a900473ffffffffffffffffffffffffffffffffffffffff1673ffffffffffffffffffffffffffffffffffffffff1603611ed35780915050611f40565b600460008273ffffffffffffffffffffffffffffffffffffffff1673ffffffffffffffffffffffffffffffffffffffff16815260200190815260200160002060009054906101000a900473ffffffffffffffffffffffffffffffffffffffff169050611da5565b60009150505b919050565b6000819050919050565b611f5881611f45565b82525050565b6000602082019050611f736000830184611f4f565b92915050565b600080fd5b611f8781611f45565b8114611f9257600080fd5b50565b600081359050611fa481611f7e565b92915050565b60008060408385031215611fc157611fc0611f79565b5b6000611fcf85828601611f95565b9250506020611fe085828601611f95565b9150509250929050565b600082825260208201905092915050565b7f50726563696f20792063616e746964616420646562656e20736572206d61796f60008201527f7265732061206365726f00000000000000000000000000000000000000000000602082015250565b6000612057602a83611fea565b915061206282611ffb565b604082019050919050565b600060208201905081810360008301526120868161204a565b9050919050565b7f5072696d65726f20656c696d696e61207475206f7264656e206578697374656e60008201527f7465000000000000000000000000000000000000000000000000000000000000602082015250565b60006120e9602283611fea565b91506120f48261208d565b604082019050919050565b60006020820190508181036000830152612118816120dc565b9050919050565b600073ffffffffffffffffffffffffffffffffffffffff82169050919050565b600061214a8261211f565b9050919050565b61215a8161213f565b82525050565b60006020820190506121756000830184612151565b92915050565b60008151905061218a81611f7e565b92915050565b6000602082840312156121a6576121a5611f79565b5b60006121b48482850161217b565b91505092915050565b7f53616c646f20696e737566696369656e74652070617261206c6120636f6d707260008201527f6100000000000000000000000000000000000000000000000000000000000000602082015250565b6000612219602183611fea565b9150612224826121bd565b604082019050919050565b600060208201905081810360008301526122488161220c565b9050919050565b7f4e487b7100000000000000000000000000000000000000000000000000000000600052601160045260246000fd5b600061228982611f45565b91507fffffffffffffffffffffffffffffffffffffffffffffffffffffffffffffffff82036122bb576122ba61224f565b5b600182019050919050565b60006060820190506122db6000830186612151565b6122e86020830185612151565b6122f56040830184611f4f565b949350505050565b60008115159050919050565b612312816122fd565b811461231d57600080fd5b50565b60008151905061232f81612309565b92915050565b60006020828403121561234b5761234a611f79565b5b600061235984828501612320565b91505092915050565b60006040820190506123776000830185611f4f565b6123846020830184611f4f565b9392505050565b7f4e6f207469656e6573206f7264656e65732064652076656e7461000000000000600082015250565b60006123c1601a83611fea565b91506123cc8261238b565b602082019050919050565b600060208201905081810360008301526123f0816123b4565b9050919050565b600061240282611f45565b9150600082036124155761241461224f565b5b600182039050919050565b60006040820190506124356000830185612151565b6124426020830184611f4f565b9392505050565b7f53616c646f20696e737566696369656e74652070617261206c612076656e7461600082015250565b600061247f602083611fea565b915061248a82612449565b602082019050919050565b600060208201905081810360008301526124ae81612472565b9050919050565b7f4e6f207469656e6573206f7264656e657320646520636f6d7072610000000000600082015250565b60006124eb601b83611fea565b91506124f6826124b5565b602082019050919050565b6000602082019050818103600083015261251a816124de565b9050919050565b600061252c82611f45565b915061253783611f45565b925082820390508181111561254f5761254e61224f565b5b9291505056fea2646970667358221220b08266c81fc7ddad026d0fe92ae9c1470d8bbb2a9b2521b7177eb001f8c3364564736f6c63430008140033a2646970667358221220d31ae2e7441cba37e59d49510e53defd66da1bd4eb34d0f760b5c0ccfd09eb6464736f6c63430008140033",
  "linkReferences": {},
  "deployedLinkReferences": {}
}